:0400000008040020D0
:04000400990100005E
:04000800B50100003E
:04000C00B701000038
:0400100000000000EC
:0400140000000000E8
:0400180000000000E4
:04001C0000000000E0
:0400200000000000DC
:0400240000000000D8
:0400280000000000D4
:04002C00B901000016
:0400300000000000CC
:0400340000000000C8
:04003800BB01000008
:04003C00BD01000002
:0400400000000000BC
:0400440000000000B8
:0400480000000000B4
:04004C0000000000B0
:0400500000000000AC
:0400540000000000A8
:0400580000000000A4
:04005C0000000000A0
:04006000000000009C
:040064000000000098
:040068000000000094
:04006C000000000090
:04007000000000008C
:040074000000000088
:040078000000000084
:04007C000000000080
:04008000000000007C
:040084000000000078
:04008800D906000095
:04008C000000000070
:04009000000000006C
:040094000000000068
:040098000000000064
:04009C000000000060
:0400A000000000005C
:0400A4000000000058
:0400A8000000000054
:0400AC000000000050
:0400B000000000004C
:0400B4000000000048
:0400B8000000000044
:0400BC000000000040
:1001EC0030B5084C2288084B1A40C3024D002B43F3
:0801FC00012003431A43228095
:0602040062881020024098
:02020A00FBD027
:02020C0030BD03
:040210003400003086
:04021400700700006F
:0602180010B51C200321BB
:10021E00FFF7E5FF06480188064C61804188A18002
:04022E008188E18062
:0802320000F009F803482084E4
:02023A0010BDF5
:04023C00E4010000D9
:04024000000000308A
:0402440001010000B4
:0C02480010B5134CE06913490843E06155
:1002540000F034F811492180002020816081A081C0
:100264000F4AE28160222282502262820D4AA282D7
:100274000522E2820C4A22830C4A62830C4AE26120
:1002840020840C4A628420856185E0690A4908401B
:02029400E06127
:0202960010BD99
:040298000000003032
:04029C00000003005B
:0402A000001000004A
:0402A40000800000D6
:0402A8000002000050
:0402AC0006840000C4
:0402B000FA810000CF
:0402B4008000033093
:0402B800FFFF000044
:0402BC00FFBFFCFF85
:0402C00004490020CD
:0C02C40000220A60091D401C024A904202
:0202D000F8D361
:0202D200704773
:0402D40000000038EE
:0402D800000800001A
:1002DC004146F2B581B02C498B880A8814469A4263
:0402EC0001DA9D1A7C
:0202F00001E02B
:0402F20029498D1AEF
:1002F60029490C44064621680091241D2D1FA1B2F0
:04030600244A9142B2
:04030A0000DB234CA5
:08030E0069460988C81C04219E
:10031600FFF70EFF0746A9B288466A461288914241
:0403260009DB0025CA
:02032A0004E0ED
:0A032C0021683160361D241D6D1C90
:02033600BD42C6
:02033800F8D3F8
:02033A001BE0C6
:04033C004046042112
:08034000FFF7F9FE3F1A00254A
:0203480004E0CF
:0A034A0021683160361D241D6D1C72
:0403540040460421FA
:06035800FFF7EDFE8542F7
:06035E00F4D30E4C002553
:0203640004E0B3
:0A03660021683160361D241D6D1C56
:02037000BD428C
:02037200F8D3BE
:06037400A1B2084A91420B
:04037A0000DB074C51
:10037E0005490C800A89203A0A816846008801B036
:06038E00F2BC884600BD30
:04039400280000300D
:040398000010000051
:04039C000000003825
:1003A0004246F4B582B088463B49CA884C8894429C
:0E03B00006D2111B6A46918000216A46D18058
:0203BE0007E056
:1003C0003649091B6B46998035490A446946CA80FB
:0E03D0006A4692886946C9880A44083A42453E
:0403DE0001DA002020
:0203E20055E0E4
:1003E400464605462E490C442660241D69468988E4
:0C03F400091F68468180A2B22A498A4293
:0404000000DB2A4CA7
:060404004146C81C042162
:0C040A00FFF794FE06466A4692884245C1
:040416000ADB0027D6
:02041A0004E0FC
:0A041C0029682160241D2D1D7F1C9E
:04042600B9B2B14274
:02042A00F7D306
:02042C0021E0CD
:06042E00684680880421ED
:08043400FFF77FFE361A0027D6
:02043C0004E0DA
:0A043E0029682160241D2D1D7F1C7C
:0A044800B9B20091684680880421D3
:08045200FFF770FE00998142E2
:06045A00F0DB134C00274B
:0204600004E0B6
:0A04620029682160241D2D1D7F1C58
:04046C00B9B2B1422E
:02047000F7D3C0
:06047200A2B20C498A420F
:0404780000DB0C4C4D
:0A047C0000222260241DA2B28A4271
:0404860000DB084C43
:06048A0003494C804046CE
:0204900002B0B8
:06049200F4BC904600BD21
:040498002800003008
:04049C00002000003C
:0404A00000F0000068
:0404A400000000381C
:0404A800FD1F000034
:0404AC000010003804
:1004B0001748C169174A1143C161174A1168890970
:0C04C00089013F23194311600521816070
:0604CC0002680C219143BF
:0A04D200FBD10221C1601049416016
:0404DC000168C907E3
:1004E000FCD3C16908221143C16118220C490A607A
:1004F000C1690822D2431140C161C168094A114350
:0E050000C16009494163C169084A1143C161E4
:02050E00704734
:0405100000000240A5
:0405140000000008DB
:0405180038800D40DA
:04051C00040F0000C8
:040520000080014016
:0405240006010000CC
:040528000000003996
:04052C00000040018A
:1005300030B5254A1068254908431060244C2548E9
:100540000460254B43600021C943016123480460D6
:1005500043600161224923480160234941602349E6
:100560000161234923480160234941602349016116
:100570002349244881602449C16024498161244C75
:1005800024498C6040240C60C0254D60FF25CD605F
:100590008B614C6280230B620021016041681E4B1D
:1005A00019434160C1681943C16081691B4B1943FC
:1005B000816110681A49084310601A491A4801609D
:0405C0001A49C160B3
:0205C40030BD48
:0405C8001C000240D1
:0405CC000000E02328
:0405D00055555555D3
:0405D40008800A4051
:0405D800FFFF000021
:0405DC0008000B40C8
:0405E0000500A80268
:0405E40008800B4040
:0405E800031E0000EE
:0405EC000F00FC03FD
:0405F00000A8AAAA0B
:0405F40008800E402D
:0405F800E0FF000020
:0405FC0000FCFFFF01
:040600000000008076
:0406040000000C40A6
:04060800008000006E
:04060C00000000C02A
:04061000AA0A000032
:0406140000800C4016
:04061800807F0000DF
:04061C0000C0FF3FDC
:040620000000004096
:040624000280000050
:0406280054000F402B
:04062C0009020000BF
:0601E400123456789ABCAB
:040C1800C0A8015718
:0206300000B513
:04063200FFF73DFF92
:04063600FFF7EFFDDE
:10063A00FFF779FF1A491A484160012101601948F8
:02064A0000218D
:08064C0000F0A4FA1748002198
:0606540000F0BCFA0028D2
:08065A0002D115491648418048
:040662001348012117
:0806660000F097FA1148012190
:06066E0000F0AFFA0028C5
:0806740002D111490F48418039
:04067C0010491148C8
:02068000016017
:0C0682001149488802221040104A10481C
:04068E0001D1026034
:0206920000E086
:020694004260C2
:0A0696004888082108400D490C486F
:0406A000EED04160F7
:0206A400EDE780
:0406A800FFFFFF0051
:0406AC0010E000E07A
:0406B00000000060E6
:0406B40001560000EB
:0406B800040000201A
:0406BC0001550000E4
:0406C0000000040032
:0406C40000E100E071
:0406C80034000030CA
:0406CC0000800000AA
:0406D00020000B40BB
:0406D40000400000E2
:1006D80030B50C49488848800B4908400B4C2168C4
:0C06E8000B4A514021600121084001280C
:0806F40009D1802525620848A8
:0806FC00FFF7EEFD074908803D
:0607040000F00EF8656232
:02070A0030BD00
:04070C002000003099
:0407100001010000E3
:0407140000000C4095
:0407180000020000DB
:04071C0008040020AD
:040720009410002011
:0A072400F0B51E4880891E49884286
:04072E002AD008289D
:0C07320034D11C4C628A1C4801888A42A9
:08073E002ED1A28A41888A42F3
:020746002AD1B6
:0807480000F090F8A18988423D
:0C07500025D16089164F384016498842B8
:08075C0005D1164E164D2E606A
:0607640000F01CF96E60BC
:08076A0060893840124DA842DD
:0607720014D1E08A082802
:0607780011D1104C2560B8
:06077E0000F0A5F8656023
:02078400F0BDC6
:0A0786000848438B08490A88934293
:0807900005D1828B48888242EA
:0207980001D18D
:04079A0000F011F862
:02079E00F0BDAC
:0407A0000804002029
:0407A4000806000043
:0407A8001404002015
:0407AC000400002025
:0407B00000FF000046
:0407B4000011000030
:0407B800000100003C
:0407BC0020000C40CD
:1007C00000B58BB0254841886A46118081886A4609
:1007D0005180C1886A46918021494A886B46DA80F7
:1007E0008A886B461A81CA886B465A8102896B4691
:1007F0009A8142896B46DA8182896B461A82C28964
:100800006B465A82174A6B469A824A886B46DA824E
:100810008A886B461A83CA8869464A8312490A88BD
:100820006B469A834A886946CA8341886A4611841E
:1008300081886A465184C1886A469184018B6A46E0
:10084000D184418B6846018500206946488500A80F
:020850002A215B
:06085200FFF7A5FD0BB04D
:0208580000BDE1
:04085C000C04002068
:040860000000003064
:04086400000200008E
:040868000400002068
:10086C000B4948888A881044CA8810440A89104465
:10087C004A891044CA8910440A8A10444A8A10448E
:0E088C008A8A1044020C81B25018C04380B218
:02089A007047A5
:04089C001404002020
:0608A00010B5002100224A
:0208A60006E06A
:0208A800012A23
:0A08AA0003D05300064C1B5B1944F9
:0208B400521CD4
:0208B60082427C
:0C08B800F6D30B0C8AB29918C94388B221
:0208C40010BD65
:0408C8002A040020DE
:1008CC0070B5FFB091B02F480588263D2846012110
:0608DC0008400128A8B24B
:1008E20008D1401C4510A8B240002949425AD2B250
:0208F200425270
:0208F40000E022
:0208F6004510AB
:1008F800274CE088694608802089694648806089D5
:1009080069468880234841886A46D18081886A463A
:100918001181C18868464181A0896946888107207C
:0C09280041000A5B00AE8A53401C0C2802
:02093400F8D3F6
:10093600FFF799FF69460883E08B69464883208C58
:1009460069468883608B6946C883A08B694608849C
:0C0956000020694648846084ADB2284649
:0A096200FFF79DFF6946888413200B
:02096C0003E0A6
:08096E0041000A5B8A53401CA2
:0609760029461131884200
:08097C00F7D36900223100A845
:08098400FFF70CFD7FB011B07C
:02098C0070BD3C
:04099000941000209F
:040994002804002013
:04099800080400202F
:04099C000000003027
:0A09A000F0B56D4D2D20285C0428F1
:1009AA001ED12E20285C07022F20285C0744302005
:1009BA00285C04063120285C000404443220285CA8
:0C09CA00000204443320285C0444002692
:0209D60006E039
:0809D80070193421415CA019E3
:0609E00000F0D2F8761CC5
:0209E600BE420F
:0209E800F6DB3C
:0609EA002D20285CF0281E
:1009F00010D12E20285C04062F20285C000404441B
:100A00003020285C000204443120285C0444204645
:040A100000F0B0F84A
:100A1400514FB8680002000A504C60603868A16801
:020A2400606808
:080A260003D3081A4E490844ED
:020A2E0000E0E6
:020A3000081AA2
:100A320020606088E086208820876068A06049483E
:0E0A420001882639084601221040012888B29A
:100A500008D1401C411088B24000444A835ADBB29E
:020A60008352BF
:020A620000E0B2
:020A640041103F
:100A66003C4DE888A0812889E081688920823E483B
:100A7600428862828288A282C288E282A889208312
:100A8600E8896083288AA083688AE083A88A20840C
:100A9600E88A6084E88BE084288C2085688B6085F2
:100AA600A88BA085608BA28B1044E28B1044228C0D
:100AB6001044628C1044E28C1044228D1044628DE6
:100AC6001044A28D1044030C82B29818C043A0842F
:100AD600A88CE085688C2086E88C60860020A0863D
:0C0AE6001131688EE0878EB2304602218C
:060AF200FFF720FB0D21BF
:020AF80013E009
:100AFA008A0013195259DA60491C8A00131952598B
:100B0A00DA60491C8A0013195259DA60491C8A00B2
:080B1A0013195259DA60491C5D
:020B220081420E
:100B2400E9D3B8680002000A60603868A1686068A8
:080B340003D3081A0A49084422
:020B3C0000E0D7
:020B3E00081A93
:100B40002060608860872088A087710004480C308E
:040B5000FFF726FC89
:020B5400F0BDF2
:040B5800080400206D
:040B5C0010E000E0C5
:040B6000480A00201F
:040B6400FFFFFF0090
:040B680094100020C5
:040B6C002804002039
:040B70000000003051
:0801C400080400209510002042
:0C01CC000400002007000020180C0000B8
:080B740030B54025024C65601C
:040B7C008047256029
:020B800030BD86
:040B840020800C4081
:0A0B88004023024A5360017013601D
:020B92007047AA
:040B940020800C4071
:0A0B980030B540250A4C65600029C5
:040BA20007D1002255
:0A0BA6000260001D521C07498A423C
:020BB000F9D377
:020BB20007E05A
:020BB40000221D
:0C0BB600D3430360001D521C03498A4217
:020BC200F8D366
:020BC4002560AA
:020BC60030BD40
:040BC80020800C403D
:040BCC000000040021
:0C0BD000F0B540270E4E7760012400298C
:040BDC0009D1002219
:060BE0000368001D9342B2
:080BE6000AD1521C0A498A429F
:020BEE00F7D33B
:020BF0000BE018
:020BF2000022DF
:080BF4000368001DD543AB426C
:020BFC0001D026
:020BFE000024D1
:020C000003E00F
:060C0200521C03498A4266
:020C0800F4D323
:040C0A0037602046E9
:020C0E00F0BD37
:040C100020800C40F4
:040C140000000400D8
:0201980003481A
:04019A0080F308885E
:02019E00034814
:0201A000804796
:0201A200034810
:0201A400004712
:0C01A80008040020C1000000C500000099
:0201B400FEE764
:0201B600FEE762
:0201B800FEE760
:0201BA00FEE75E
:0201BC00FEE75C
:0200C000704787
:0200C4001348DF
:0200C6001449DB
:0200C800491CD1
:0200CA0007E04D
:0200CC001CC84E
:0200CE005B1CB9
:0200D000257891
:0200D2001570A7
:0200D4000134F5
:0200D6000132F5
:0200D8009A424A
:0200DA00F9D15A
:0200DC00884258
:0200DE00F5D15A
:0200E0000E48C8
:0200E2000F49C4
:0200E400491CB5
:0200E6000024F4
:0200E80005E031
:0200EA000CC840
:0200EC005B1C9B
:0200EE0014708C
:0200F0000132DB
:0200F2009A4230
:0200F400FBD13E
:0200F60088423E
:0200F800F7D13E
:0200FA000A4CAE
:0200FC000A4DAB
:0200FE006D1C77
:02010000764641
:0201020001E01A
:0201040004CC29
:02010600904720
:02010800AC4207
:02010A00FBD127
:02010C000748A2
:02010E0008499E
:020110008E4619
:020112000047A4
:10011400CC010000E3010000C4010000CB01000099
:1001240000000000FFFFFFFF310600003501000062
:02013400FEE7E4
:020136000022A5
:0201380000299C
:02013A0001D5ED
:02013C00494236
:02013E0001229C
:02014000C30FEB
:0201420001D0EA
:02014400404237
:020146005A401D
:0201480004B5FC
:04014A0000F006F8C3
:02014E0004BCEF
:02015000012A82
:0201520000D1DA
:02015400404227
:0201560000BDEA
:02015800FEE7C0
:02015A0000297A
:02015C00FCD0D5
:02015E008842D5
:0201600002D1CA
:0201620000217A
:02016400012078
:020166007047E0
:0201680002D8BB
:02016A00010092
:02016C00002071
:02016E007047D8
:020170008C46BB
:020172000B0080
:0201740042083F
:020176009342B2
:0201780000D8AD
:02017A005B0028
:02017C009342AC
:02017E00FCD9AA
:0201800002007B
:0201820000205B
:020184009A429D
:0201860000D3A4
:02018800D21A89
:02018A004041F2
:02018C005B080E
:02018E008B42A2
:02019000F8D2A3
:0201920011005A
:02019400002841
:020196007047B0
:0401BE00A55AA55A3F
:0C01D8000000002003000020BE01000019
:00000001FF
